:10064F004572726F720D0A004F6B656A0D0A0030AA
:10065F000D0A00310D0A00320D0A00330D0A003465
:10066F000D0A00350D0A00360D0A00370D0A003845
:10067F000D0A00390D0A0031300D0A0031310D0A13
:10068F000031320D0A0031330D0A0031340D0A00EA
:0D069F0031350D0A004D657374613A00009D
:100818000346FF064F034EFF0657014C00024900EE
:0708280005014D00014B002A
:0403F7008E268F2798
:1003FB00E4F531F532F533F534F535F536F5407571
:10040B004100754237F543754400754528AE26AF5C
:10041B00277C007D0A12036C8C358D36AE26AF27F8
:10042B007C007D0A12036C8E268F27E5362430ABB9
:10043B0040AA41A94212035A74012542F542E43500
:10044B0041F5410532E53270020531E5274526704D
:10045B00BCAB40AA41A94212035AD3E5329400E542
:10046B00319400402E74FF2542F54274FF3541F55F
:10047B0041AB40FAA942120314FF74282534F8A6A5
:10048B00070534E53470020533E532153270CB15B0
:10049B003180C774282534F8E4F6AB43AA44A94548
:0104AB00222E
:070861007590E075B0F9226B
:0B078900D2A0C2A1C2A2C2A31207941A
:10079400E58954F04401F589E4FF758CEEE4F58AAB
:0B07A400D28C308DFDC28D0FBFC8EF5E
:0107AF002227
:06083000C293D292C2B295
:0E083600758CFF758AD2D28C308DFDC28D225A
:0E085300758CF8758ACDD28C308DFDC28D2249
:06086800120853020853C0
:0F08440012079412079412079412079402079454
:0507B0009290AF041D52
:1007B5007401A805088002C333D8FC5FFFAE05A805
:0E07C50006088002C313D8FC24FF9201A20193
:0107D3002203
:1006AC00AC07D2B2D2B37D071207B51207B0929144
:1006BC00AF041D1207B59292AF041D1207B59293A9
:1006CC00C2B200D2B2AF041D1207B51207B092919C
:1006DC00AF041D1207B59292AF041D1207B5929389
:0506EC00C2B202083655
:09072A001207D47BFF7A0679A4C2
:060733008B268A278928AD
:10073900E4F529AB26AA27A928AF29EF3395E08F3D
:1007490082F58312032DFF60071206AC052980E3A9
:01075900227D
:1007D400C2B3D2B2C290C291C292C293C2B200C298
:1007E400B3D2B2C290C291C292D293C2B21208538F
:0307F400020853A5
:1007F700C2B3D2B2D290D291C292C293C2B200D245
:10080700B2C290C291C292C293C2B21208530208F6
:01081700538D
:1004AC00120861120794D2B2C2B3C290C291120860
:1004BC0030D2B2C2B3C290C291C293D292C2B20035
:1004CC00D2B2C2B3D290C291C293C292C2B212083B
:1004DC0036D2B2C2B3C290C291C293C292C2B2001F
:1004EC00D2B2C2B3D290D291D293120832D2B2C24B
:1004FC00B3C290C291C293C292C2B200D2B2C2B382
:10050C00C290C291D293C292C2B2120868D2B2C245
:10051C00B3C290C291C293C292C2B200D2B2C2B361
:0D052C00C290D291120830120853D29422CE
:10002600E557642860030201C8E55864706003025E
:1000360001C8E559643A60030201C8C3E55A648001
:1000460094B050030201C8D3E55A648094B14003CA
:100056000201C8C3E55B648094B050030201C8D3B3
:10006600E55B648094B940030201C8E55C642960DD
:10007600030201C8E55AB4300CAF5BEF3395E0FEDE
:10008600EF24D0801EC3E55B648094B6400B8546A2
:10009600518547528548538011AF5BEF3395E0FE9B
:1000A600EF24DAF54AEE34FFF549E549600302012B
:1000B600ADE54AB4100040030201AD9000C8F8282F
:1000C60028730200F802010402011002011C020159
:1000D6002802013402013F02014A02015502016071
:1000E60002016B02017602018102018C0201970274
:1000F60001A27551FF75520675535E0201B6755120
:10010600FF7552067553620201B67551FF755206A8
:100116007553660201B67551FF75520675536A022C
:1001260001B67551FF75520675536E0201B67551CB
:10013600FF75520675537280777551FF75520675B5
:100146005376806C7551FF75520675537A806175CA
:1001560051FF75520675537E80567551FF755206CE
:10016600755382804B7551FF7552067553868040D4
:100176007551FF75520675538B80357551FF755253
:1001860006755390802A7551FF75520675539580F2
:100196001F7551FF75520675539A80147551FF7578
:1001A600520675539F8009854651854752854853A7
:1001B60012072A1207F7AF5A1206ACAF5B1206AC4B
:1001C6008009854651854752854853AB51AA52A9A5
:0C01D60053120314F599E4F557F54C2280
:030023000205C50E
:1005C500C0E0C0F0C083C082C0D075D000C000C0FC
:1005D50001C002C003C004C005C006C00730991998
:1005E500C29974012553F553E43552F552AB51FACE
:0C05F500A9531203146002F599309833EA
:10060100C298859921E521B42803754C00745725BA
:100611004CF8A621AF4CEF3395E0FEEF2401FFE447
:100621003EFE7C007D0A12036C8D4CE521B429034A
:030631001200268E
:10063400D007D006D005D004D003D002D001D0001A
:0B064400D0D0D082D083D0F0D0E032C4
:030003001206F9E9
:10000600AF4AAE491203F78B548A55895612072A0E
:0C0016001207F7AB54AA55A95602073395
:10075A00C2A0D2A1C2A2C2A3120794120794C2A035
:09076A00C2A1C2A2D2A3120844EC
:10077300208005754D018003E4F54D208104754B00
:060783000122E4F54B2207
:0806F100C2A0C2A1C2A2D2A363
:1006F900D3E54A9400E54964809480500AE4F549B9
:10070900F54AF54B75A004C3E54A940FE5496480A1
:100719009480400C754900754A0FE4F54D75A004A5
:0107290022AD
:1001E2001204AC759850758780759B1C759AFDD268
:1001F200AFD2AC75A0047580FF1207731206F9E541
:100202004B6401707CD3E54A9400E5496480948094
:10021200406F12075AE54A154A705615498052E551
:100222004B64016006E54D6401704B1206F1E54B2B
:10023200B4011ED3E54A9400E549648094804011DC
:10024200120844120773E54A154A70021549120052
:1002520003E54DB401C9C3E54A940FE549648094AE
:100262008050BC120844120773054AE54A70020521
:100272004912000380A9120789C2A0C2A1D2A2C258
:10028200A3E54D640160030201FBC3E54A940FE557
:10029200496480948040030201FB12075A054AE533
:1002A2004A705905498055E54B64016006E54D6485
:1002B2000170511206F1E54BB40121D3E54A9400D5
:1002C200E549648094804014120844120773E54A99
:1002D200154A700215491206F9120006E54DB401DD
:1002E200C6C3E54A940FE5496480948050B9120868
:1002F20044120773054AE54A700205491206F912CB
:10030200000680A3120789C2A0C2A1D2A2C2A30280
:0203120001FBED
:03000000020539BD
:0C053900787FE4F6D8FD75816002058033
:10031400BB010689828A83E0225002E722BBFE02E7
:09032400E32289828A83E493221A
:10032D00BB010CE58229F582E5833AF583E0225085
:10033D0006E92582F8E622BBFE06E92582F8E222CF
:0D034D00E58229F582E5833AF583E49322E9
:10035A00BB010689828A83F0225002F722BBFE0182
:02036A00F3227C
:10036C00C2D5EC30E709B2D5E4C39DFDE49CFCEEAC
:10037C0030E715B2D5E4C39FFFE49EFE1203A2C37F
:10038C00E49DFDE49CFC80031203A230D507C3E47A
:06039C009FFFE49EFE221B
:100545000201E2E493A3F8E493A34003F68001F2E9
:1005550008DFF48029E493A3F85407240CC8C333B7
:10056500C4540F4420C8834004F456800146F6DF86
:10057500E4800B0102040810204080900818E47EF6
:10058500019360BCA3FF543F30E509541FFEE4937B
:10059500A360010ECF54C025E060A840B8E493A342
:1005A500FAE493A3F8E493A3C8C582C8CAC583CA6D
:1005B500F0A3C8C582C8CAC583CADFE9DEE780BE25
:01082F0000C8
:1003A200BC000BBE0029EF8DF084FFADF022E4CC3F
:1003B200F875F008EF2FFFEE33FEEC33FCEE9DEC08
:1003C200984005FCEE9DFE0FD5F0E9E4CEFD22ED4E
:1003D200F8F5F0EE8420D21CFEADF075F008EF2F98
:1003E200FFED33FD4007985006D5F0F222C398FD89
:0503F2000FD5F0EA2226
:00000001FF
